:100000000C94C8000C94E5000C94E5000C94E500F9
:100010000C94CE050C94E5000C94E5000C94E500DE
:100020000C94E5000C94E5000C94E5000C94FC05A0
:100030000C94E5000C94E5000C94E5000C94E500AC
:100040000C94E5000C94E5000C94E5000C94E5009C
:100050000C94E5000C94E5000C94E5000C94BD05AF
:100060000C94E5000C94E500000000000000005F27
:1000700000000007000700147F147F14242A7F2A41
:10008000122313086462364955225000050300000C
:10009000001C2241000041221C0014083E081408E4
:1000A000083E0808005030000008080808080060F2
:1000B00060000020100804023E5149453E00427F86
:1000C000400042615149462141454B311814127F8D
:1000D0001027454545393C4A494930017109050316
:1000E0003649494936064949291E0036360000007E
:1000F0005636000008142241001414141414004150
:100100002214080201510906324979413E7E11113B
:10011000117E7F494949363E414141227F4141227A
:100120001C7F494949417F090909013E4149497AF2
:100130007F0808087F00417F41002040413F017F48
:10014000081422417F404040407F020C027F7F0420
:1001500008107F3E4141413E7F090909063E415159
:10016000215E7F09192946464949493101017F012C
:10017000013F4040403F1F2040201F3F4038403F4C
:100180006314081463070870080761514945430068
:1001900011241FBECFEFD8E0DEBFCDBF12E0A0E03C
:1001A000B1E0EAEEFBE102C005900D92AC36B1077A
:1001B000D9F722E0ACE6B2E001C01D92A937B20740
:1001C000E1F70E943A010C94F30D0C940000FC013D
:1001D00010828AE0818312820895CF93DF93EC012D
:1001E0008A819981891302C088818A8320E8829F4D
:1001F000C001112403964FE750E08C0F9D1F0E9411
:10020000E50A8A8190E8899FF0011124EC0FFD1F17
:10021000EE57FF4F10828F5F8A83DF91CF91089551
:10022000EF92FF920F931F93CF93DF93EC012396EE
:1002300000E010E080E0E82E81E0F82EDF93CF931D
:100240001F930F93FF92EF920E94F40A0F5F1F4FCC
:10025000C058DF4F0F900F900F900F900F900F909E
:100260000A30110559F7DF91CF911F910F91FF903F
:10027000EF900895CDB7DEB7CB53D5400FB6F894C5
:10028000DEBF0FBECDBF60E875E280E090E00E9467
:1002900049070E9463050E94C3050E94D5040E947D
:1002A000A0050E94AE050E94DD020E9431037894F1
:1002B00089E091E00E94650721E040E06AE081E288
:1002C00091E00E94A6030E94520621E041E08115C0
:1002D00009F438C16EE18EE291E00E94A60386E344
:1002E00091E00E9465072FEF87EA91E62150804058
:1002F0009040E1F700C000000E94310388E691E0E1
:100300000E946507CE0101966C018BEE282E81E0DC
:10031000382E4E019CED891A9AEF990A9EE4F92E27
:100320005E012CEFA21A2AEFB20A4090730250909D
:1003300074021EE1141980917602811509F4A6C099
:10034000109275020E943103CE018C5C9A4F0E947C
:100350006E06811509F456C0809176028111FAC0AB
:1003600021E041E060E08BE991E00E94A603CC5CD3
:10037000DA4F688179818A819B81C453D540EE240C
:10038000E39402E020E041E00E94C10321E042E06A
:1003900062E383EE91E00E94A60321E044E060E086
:1003A00081EA91E00E94A603C85CDA4F68817981F6
:1003B0008A819B81C853D54005E020E041E00E943E
:1003C000C10321E045E062E388EA91E00E94A603D0
:1003D00021E047E060E08AEA91E00E94A60361E044
:1003E0008F2D84191A3060F0812F6AE00E94460830
:1003F000092F61E0805D0E945A0361E080E3800F75
:100400000E945A030E94D9042B013C0124E046E0DB
:1004100064E687E0481651046104710408F0A8C03E
:1004200080ED91E00E94A6030E94A2057F926F9248
:100430005F924F9284ED91E09F938F93DF92CF92E2
:100440000E940A0BC6010E9465070FB6F894DEBF32
:100450000FBECDBF21E042E064E685EE91E00E9450
:10046000A6037F926F925F924F923F922F929F923C
:100470008F920E940A0B21E043E064E6C4010E94CF
:10048000A6030FB6F894DEBF0FBECDBFC6010E9413
:10049000E700C95CDA4F8881C753D5408F93CA5CA7
:1004A000DA4F8881C653D5408F93CB5CDA4F888171
:1004B000C553D5408F93CC5CDA4F8881C453D54067
:1004C0008F9382EF91E09F938F93BF92AF920E94A0
:1004D0000A0BB501C6010E94ED0082E092E00E9485
:1004E0006507C85CDA4F688179818A819B81C8532E
:1004F000D54041E00E94A50780E192E00E94650797
:10050000812F90E00E9471078AE192E00E946507C6
:100510000FB6F894DEBF0FBECDBF9B818A819813C2
:1005200007C08EE192E00E946507C6010E9410019B
:100530009FEF20E782E0915020408040E1F700C02B
:100540000000F3CE69E188E491E00E94A60382E511
:1005500091E0C7CE0E94310321E043E064E180EBEB
:1005600091E00E94A6038BEB91E00E9465074ACFC1
:1005700081EE91E00E94A6036DCFCF93C82F0E9419
:100580006C0588E70E947F0580E00E947F058C2F24
:100590000E947F05CF910C947705CF93C82F0E94BE
:1005A0006C0588E70E947F0580E40E947F058C2F00
:1005B0000E947F05CF910C9477052FEF81EE94E098
:1005C000215080409040E1F700C000008EEA0E9478
:1005D000BD0285ED0E94BD0280E80E94BD0288EA4E
:1005E0000E94BD028FE30E94BD0283ED0E94BD0206
:1005F00080E00E94BD0280E40E94BD028DE80E945E
:10060000BD0284E10E94BD0280E20E94BD0280E042
:100610000E94BD0281EA0E94BD0288EC0E94BD02D8
:100620008AED0E94BD0282E10E94BD0281E80E9423
:10063000BD028FEC0E94BD0289ED0E94BD0281EFD8
:100640000E94BD028BED0E94BD0280E40E94BD02AB
:1006500084EA0E94BD0286EA0E94BD028FEA0C94E1
:10066000BD02CF93DF93C0EB8C2F0E94BD0280E0D0
:100670000E94BD0280E10E94BD02D0E880E00E949D
:10068000CD02DA95D9F7CF5FC83B71F7DF91CF91F3
:100690000895CF93C82F80EB860F0E94BD028C2F48
:1006A0008F700E94BD028C2F82958F70805FCF91DA
:1006B0000C94BD02DF92EF92FF920F931F93CF93A2
:1006C000DF93C82FD62E80EE8C0F8B3308F0C0E25C
:1006D000C05285E0C802E0011124C859DF4F00E094
:1006E00083E0E82EF12CFE018491F1E020E030E07F
:1006F00010E090E0DF1210C00E94CD020F5F219643
:10070000053089F780E0DF91CF911F910F91FF9025
:10071000EF90DF900C94CD02AC01022E02C05595F3
:1007200047950A94E2F740FF07C0A701022E01C0D7
:10073000440F0A94EAF7142B2F5F3F4F28303105FE
:1007400059F7812F0E94CD02812FD6CFFF920F93B0
:100750001F93CF93DF93F82E092F862F642F122F2C
:100760000E944903CF2DD02F8991811106C0DF91BE
:10077000CF911F910F91FF900895612F0E945A030E
:10078000F3CF2F923F924F925F926F927F928F9210
:100790009F92AF92BF92CF92DF92EF92FF920F9310
:1007A0001F93CF93DF93CDB7DEB76C970FB6F89456
:1007B000DEBF0FBECDBF6B01F82E192F742E2B8F0D
:1007C000EC8E0E948B094B015C01C501B4010E94B3
:1007D000C3099B01AC01B6018F2D912F0E94A70880
:1007E0006B017C01612CB7FE10C08DE28983B0944F
:1007F000A09490948094811C911CA11CB11CF7FAC8
:10080000F094F7F8F0946624639410E08AE0282EC0
:10081000312C412C512CC501B401A20191010E943F
:100820008808FE017196E10FF11D1F5F605D608316
:10083000D501C40149015A010A97A105B1055CF728
:10084000262D210F822F811B90E0111137C0992492
:100850009394920EAE014F5F5F4F840F951F3EE25F
:10086000FC01308311E0170D120FA92CB12C91124D
:1008700033C0FE013196EA0DFB1D10822C8D402FF6
:100880006B8DCE0101960E94A6036C960FB6F8946C
:10089000DEBF0FBECDBFDF91CF911F910F91FF90B3
:1008A000EF90DF90CF90BF90AF909F908F907F9010
:1008B0006F905F904F903F902F9008951150AE0130
:1008C0004F5F5F4F840F951FFE017196E10FF11D81
:1008D0003081FC013083B6CF20E030E040E251E4CB
:1008E000C701B6010E94780A6B017C010E948B0946
:1008F0009394FE013196EA0DFB1D20E3260F208321
:100900000E94C3099B01AC01B601C7010E94A70860
:100910006B017C01AACF282FE82FF92F8FEF41E33D
:100920009E2F921B961708F008959191892798E0C1
:10093000382F330F87FF05C0832F84279A95C1F77F
:10094000EFCF832FFBCF90917C00907F8F70982BFF
:1009500090937C0085E38A95F1F7000080917A00FE
:10096000806480937A0080917A0086FDFCCF80912C
:100970007800909179000895FC0181E080831282D3
:100980001182109285001092840083830895FC01E7
:100990008081811549F010821282118210928500A7
:1009A000109284000C9431030895219A229829987A
:1009B0000895CF92DF92EF92FF92CF93DF93CDB75E
:1009C000DEB7A0970FB6F894DEBF0FBECDBF86E3AB
:1009D00092E00E94650729982AE02A95F1F700C065
:1009E000299A85E38A95F1F70000299880E090E044
:1009F0001A9B3EC0C12CD12C76011A9952C0FF928D
:100A0000EF92DF92CF9285E492E09F938F93CE0195
:100A100001969F938F930E940A0BCE0101960E942C
:100A200065070FB6F894DEBF0FBECDBFC701B60194
:100A300024E930E040E050E00E94660869017A0154
:100A40005F934F933F932F9388E592E09F938F930B
:100A5000CE0101969F938F930E940A0BCE010196BF
:100A60000E9465070FB6F894DEBF0FBECDBF0AC067
:100A70000196813325E7920709F0BACFC12CD12C1A
:100A8000E12CF12CB601C701A0960FB6F894DEBF99
:100A90000FBECDBFDF91CF91FF90EF90DF90CF9051
:100AA00008958FEFC81AD80AE80AF80A95E09A95CF
:100AB000F1F7000021E3C21625E7D206E104F104B4
:100AC00009F09BCFDBCF1092B90088E48093B80087
:100AD00084E08093BC00089584EA8093BC008091F8
:100AE000BC0087FFFCCF8091B900887F089584E91E
:100AF0008093BC008091BC0084FDFCCF089580935E
:100B0000BB0084E88093BC008091BC0087FFFCCFD1
:100B10008091B900887F089584EC8093BC00809117
:100B2000BC0087FFFCCF8091BB00089584E88093D0
:100B3000BC008091BC0087FFFCCF8091BB00089572
:100B4000239A08952B9A2FEF83ED90E32150804054
:100B50009040E1F700C000002B98089510928000AB
:100B60008DE08093810088E09DE3909389008093DD
:100B7000880082E080936F0008958F9381E08093D6
:100B800072028F91189580B78F7B80BF80B7886085
:100B900080BF80B7836080BF789408951F920F92C2
:100BA0000FB60F9211242F933F934F935F936F9340
:100BB0007F938F939F93AF93BF93EF93FF93309B5C
:100BC0000AC080E00E94A3048433914020F082E7B1
:100BD00092E00E94BC04FF91EF91BF91AF919F9171
:100BE0008F917F916F915F914F913F912F910F90D6
:100BF0000FBE0F901F9018951F920F920FB60F9275
:100C000011242F933F934F935F936F937F938F9311
:100C10009F93AF93BF93EF93FF93809172028115DF
:100C200099F08091730290917402019690937402EE
:100C30008093730280917302909174024E9758F1E1
:100C400082E792E00E94C704809177029091780237
:100C50000196909378028093770280917702909129
:100C600078026AE070E00E945208892BC1F481E0AA
:100C700080937602FF91EF91BF91AF919F918F91F9
:100C80007F916F915F914F913F912F910F900FBE88
:100C90000F901F90189581E080937502D5CF109228
:100CA0007602E8CF0E946C05883039F488E80E940B
:100CB0007F05883121F00E94770580E0089584E95E
:100CC0000E947F058832B9F70E9477058FE99FE07F
:100CD0000197F1F700C0000081E00895AF92BF9244
:100CE000CF92DF92EF92FF920F931F93CF93DF93F8
:100CF000CDB7DEB728970FB6F894DEBF0FBECDBFD5
:100D00008C010E946C05883039F488E80E947F05C8
:100D10008831A1F00E94770580E028960FB6F894FC
:100D2000DEBF0FBECDBFDF91CF911F910F91FF901E
:100D3000EF90DF90CF90BF90AF9008958DEF0E941D
:100D40007F05883239F70E9477058FE39CE9019788
:100D5000F1F700C000000E946C058830E9F689E8D0
:100D60000E947F058034B1F6FE0131967F016E014D
:100D7000F6E0CF0ED11C0E948C05F70181937F0114
:100D8000EC15FD05C1F70E949605D82E0E94770547
:100D9000A980AF82FA80F88662E0CE0107960E94B1
:100DA0008B049B818913B8CFCC80CF82ED80E886FD
:100DB00062E0CE0107960E948B04D812ADCF7C2D45
:100DC0006E2D80E090E00E94C10920E03FEF4FE7E8
:100DD00057E40E94190920E030E04AEF52E40E94F3
:100DE000780A20E030E040EC50E40E94A708B62EDC
:100DF000C72ED82EE92E862F9C2DAD2DBE2DF801A5
:100E000084839583A683B7837A2D6F2D80E090E04D
:100E10000E94C10920E03FEF4FE757E40E94190903
:100E200020E030E84DE953E40E94780A20E030E009
:100E300044E452E40E94A708F8016083718382832E
:100E4000938320E030E0A9016B2D7C2D8D2D9E2D0C
:100E50000E94140987FF07C0F801148215821682C8
:100E6000178281E05ACF20E030E048EC52E46B2D4D
:100E70007C2D8D2D9E2D0E94730A181694F780E00C
:100E800090E0A8ECB2E4F80184839583A683B7834D
:100E9000E8CF9B01AC0160E472E48FE090E00E9437
:100EA0006608215031093093C5002093C40088E0C2
:100EB0008093C10086E08093C20008959091C000A5
:100EC00095FFFCCF8093C6000895CF93DF93EC018C
:100ED0008991811103C0DF91CF9108950E945E072F
:100EE000F7CF1F93CF93DF9300D000D000D0CDB7C2
:100EF000DEB7382F292F10E0EAE0F0E0832F922FA1
:100F0000BF010E945208DE011196A10FB11D1F5FA3
:100F1000805D8C93832F922F362F272F0A9770F79F
:100F200011110AC00F900F900F900F900F900F901B
:100F3000DF91CF911F9108951150FE013196E10F7D
:100F4000F11D80810E945E07EBCF4F925F926F92FE
:100F50007F928F929F92AF92BF92CF92DF92EF9249
:100F6000FF920F931F93CF93DF93CDB7DEB72A97EE
:100F70000FB6F894DEBF0FBECDBFD62EF72E8C0174
:100F8000E42E0E948B092B013C01C301B2010E9497
:100F9000C3099B01AC016D2D7F2DC8010E94A708DC
:100FA0004B015C0177FE0FC08DE20E945E077094DA
:100FB000609450944094411C511C611C711CB7FA00
:100FC000B094B7F8B094F12CC301B2012AE030E03C
:100FD00040E050E00E948808FE013196EF0DF11DBF
:100FE000F394605D6083D301C20129013A010A973D
:100FF000A105B1054CF7F1101CC08EE20E945E07FE
:10100000FE1020C02A960FB6F894DEBF0FBECDBFEB
:10101000DF91CF911F910F91FF90EF90DF90CF90D4
:10102000BF90AF909F908F907F906F905F904F9008
:101030000895FA94FE013196EF0DF11D80810E9412
:101040005E07D9CF20E030E040E251E4C501B401B1
:101050000E94780A6B018C010E948B09B62E872EA4
:10106000982EA92E80E38B0D0E945E076B2D782DA4
:10107000892D9A2D0E94C3099B01AC01B601C801BC
:101080000E94A7084B015C01F394BACF992778E03E
:10109000880F991F961708F0961B881F7A95C9F735
:1010A00080950895AA1BBB1B51E107C0AA1FBB1F57
:1010B000A617B70710F0A61BB70B881F991F5A95E4
:1010C000A9F780959095BC01CD010895A1E21A2E53
:1010D000AA1BBB1BFD010DC0AA1FBB1FEE1FFF1FDC
:1010E000A217B307E407F50720F0A21BB30BE40B2C
:1010F000F50B661F771F881F991F1A9469F7609573
:101100007095809590959B01AC01BD01CF0108952C
:10111000052E97FB1EF400940E949F0857FD07D0F0
:101120000E94660807FC03D04EF40C949F0850956B
:101130004095309521953F4F4F4F5F4F08959095C3
:101140008095709561957F4F8F4F9F4F08955058B0
:10115000BB27AA270E94BF080C94390A0E942B0AB9
:1011600038F00E94320A20F039F49F3F19F426F437
:101170000C94280A0EF4E095E7FB0C94220AE92F60
:101180000E944A0A58F3BA17620773078407950743
:1011900020F079F4A6F50C946C0A0EF4E0950B2E71
:1011A000BA2FA02D0B01B90190010C01CA01A001B9
:1011B0001124FF27591B99F0593F50F4503E68F114
:1011C0001A16F040A22F232F342F4427585FF3CF55
:1011D000469537952795A795F0405395C9F77EF426
:1011E0001F16BA0B620B730B840BBAF09150A1F06F
:1011F000FF0FBB1F661F771F881FC2F70EC0BA0FF5
:10120000621F731F841F48F4879577956795B7957C
:10121000F7959E3F08F0B0CF9395880F08F0992777
:10122000EE0F9795879508950E94FE0908F481E0D6
:1012300008950E942D090C94390A0E94320A58F030
:101240000E942B0A40F029F45F3F29F00C94220AF7
:1012500051110C946D0A0C94280A0E944A0A68F3F2
:101260009923B1F3552391F3951B550BBB27AA275F
:1012700062177307840738F09F5F5F4F220F331F99
:10128000441FAA1FA9F335D00E2E3AF0E0E832D061
:1012900091505040E695001CCAF72BD0FE2F29D064
:1012A000660F771F881FBB1F261737074807AB0736
:1012B000B0E809F0BB0B802DBF01FF2793585F4FAB
:1012C0003AF09E3F510578F00C94220A0C946D0A76
:1012D0005F3FE4F3983ED4F3869577956795B7958D
:1012E000F7959F5FC9F7880F911D9695879597F998
:1012F0000895E1E0660F771F881FBB1F6217730711
:101300008407BA0720F0621B730B840BBA0BEE1F25
:1013100088F7E09508950E9492096894B1110C94A1
:101320006D0A08950E94520A88F09F5798F0B92FCD
:101330009927B751B0F0E1F0660F771F881F991F0A
:101340001AF0BA95C9F714C0B13091F00E946C0A36
:10135000B1E008950C946C0A672F782F8827B85F46
:1013600039F0B93FCCF3869577956795B395D9F762
:101370003EF490958095709561957F4F8F4F9F4F6C
:101380000895E89409C097FB3EF490958095709578
:1013900061957F4F8F4F9F4F9923A9F0F92F96E9C1
:1013A000BB279395F695879577956795B795F11136
:1013B000F8CFFAF4BB0F11F460FF1BC06F5F7F4FD3
:1013C0008F4F9F4F16C0882311F096E911C07723E5
:1013D00021F09EE8872F762F05C0662371F096E8EE
:1013E000862F70E060E02AF09A95660F771F881FBD
:1013F000DAF7880F9695879597F90895990F000861
:10140000550FAA0BE0E8FEEF16161706E807F907D6
:10141000C0F012161306E407F50798F0621B730B71
:10142000840B950B39F40A2661F0232B242B252BF2
:1014300021F408950A2609F4A140A6958FEF811D95
:10144000811D089597F99F6780E870E060E0089536
:101450009FEF80EC089500240A94161617061806CC
:101460000906089500240A941216130614060506A8
:101470000895092E0394000C11F4882352F0BB0F39
:1014800040F4BF2B11F460FF04C06F5F7F4F8F4F9C
:101490009F4F089557FD9058440F551F59F05F3FD7
:1014A00071F04795880F97FB991F61F09F3F79F086
:1014B00087950895121613061406551FF2CF469508
:1014C000F1DF08C0161617061806991FF1CF86958A
:1014D0007105610508940895E894BB27662777276E
:1014E000CB0197F908950E94FE0908F48FEF089543
:1014F0000E948B0A0C94390A0E942B0A38F00E9431
:10150000320A20F0952311F00C94220A0C94280A38
:1015100011240C946D0A0E944A0A70F3959FC1F33E
:10152000950F50E0551F629FF001729FBB27F00D91
:10153000B11D639FAA27F00DB11DAA1F649F6627E6
:10154000B00DA11D661F829F2227B00DA11D621F35
:10155000739FB00DA11D621F839FA00D611D221FEF
:10156000749F3327A00D611D231F849F600D211DD3
:10157000822F762F6A2F11249F5750409AF0F1F056
:1015800088234AF0EE0FFF1FBB1F661F771F881FBF
:1015900091505040A9F79E3F510580F00C94220ACB
:1015A0000C946D0A5F3FE4F3983ED4F386957795EB
:1015B0006795B795F795E7959F5FC1F7FE2B880F65
:1015C000911D9695879597F90895FB01DC0141508F
:1015D000504048F001900D920020C9F701C01D92C3
:1015E00041505040E0F70895A0E0B0E0EAEFFAE0A3
:1015F0000C94CC0DAE014B5F5F4FFA01619171917C
:10160000AF0180916E0290916F020E942D0BE2E07B
:101610000C94E80DAEE0B0E0E0E1FBE00C94CA0D04
:101620000D891E8986E08C831A8309838FEF9FE7DB
:101630009E838D83AE01475E5F4F6F89788DCE01AB
:1016400001960E942D0B2F813885020F131FF80180
:1016500010822E96E4E00C94E60DABE0B0E0E3E3FC
:10166000FBE00C94BF0D6C017B018A01FC01178229
:101670001682838181FFD9C19AE0592EF601238118
:10168000F70123FD859123FF81917F01811509F4E5
:101690001FC1853239F423FD959123FF91917F017C
:1016A000953229F4B60190E00E942E0DE7CF30E08C
:1016B000912C612C712CF0E27F1640F59B32D9F011
:1016C00058F49032D1F09332F1F09E3299F576FCD5
:1016D000FFC0689476F806C09D3291F09033C1F453
:1016E000689470F8F70123FD959123FF91917F0194
:1016F0009111E1CF29C0689471F8689472F8F2CF23
:10170000689473F8EFCF689474F8ECCF77FC1CC042
:1017100080ED890F8A30C8F676FE05C0959C800D55
:101720001124982EDFCF659C800D1124682E6894BB
:1017300075F8D8CF9C3619F4689477F8D3CF9C34D9
:1017400009F44BC0983671F2892F8F7D8554833010
:1017500008F445C0933609F466C0933709F469C0AC
:10176000933509F475C0943619F0993609F09FC085
:10177000F80177FE95C061917191819191918F01EE
:10178000272D2F76822E97FF09C090958095709512
:1017900061957F4F8F4F9F4F689487F82AE030E024
:1017A000AE014F5F5F4F5A010E945E0D8A19A82E4D
:1017B00086FEC4C0882D8E7FA91408F0BEC084FEAA
:1017C00011C182FC05C1F82DFE7E8F2EB92C882D0B
:1017D0008678811509F4BFC000C131E083CF31158F
:1017E000F9F0085F1F4F8FE3898388248394912C3D
:1017F000AE014F5F5F4F5A01E89477F873FC03C066
:1018000086149104B0F181149104D1F5611409F4A6
:1018100035CFB60180E290E00E942E0D6A94F6CF9B
:101820000C5F1F4FE0CFF801808189830E5F1F4F4F
:10183000DCCFF801A190B1908F01692D70E076FCAA
:1018400002C06FEF7FEFC5010E94230D4C01D4CF82
:10185000F801A190B1908F01692D70E076FC02C073
:101860006FEF7FEFC5010E94180D4C01689477F867
:10187000C5CFB60180E290E00E942E0D6A94C0CFE1
:10188000F50177FC859177FE81915F01B60190E0CB
:101890000E942E0D61106A94F1E08F1A9108B3CF67
:1018A00061917191072E000C880B990B68CF872CE2
:1018B000E89484F82AE030E0953739F1572D597FC4
:1018C000852E903799F058F49835A9F09F36D9F0C5
:1018D000F601868197812B96EFE00C94DB0D98370B
:1018E000B9F774FC05C020E130E00FC0689484F8BB
:1018F000689482F8F8CF74FE03C0872D8660882E26
:1019000020E132E002C028E030E0F80187FE10C09C
:1019100061917191819191918F01FE0131965F01E9
:10192000AF010E945E0D8A19A82EE89487F840CF77
:101930006191719180E090E0EFCF882EBA2C84FE07
:1019400046CFFE01EA0DF11D8081803309F043C0CE
:10195000282D297E822E83FC0EC080FE4FC09A2C3B
:10196000B61418F4960C9B18B62C862D8B196B1494
:1019700008F480E0B80EB61408F042C06B1884FE7C
:1019800041C0B60180E390E00E942E0D82FE09C0A6
:1019900088E590E081FC02C088E790E0B6010E94F3
:1019A0002E0DA914D8F1AA94B12C4FEFA41AB40AA1
:1019B000CE0101964C01A80EB91EF50182915F017E
:1019C000B60190E00E942E0D8A149B04B1F71ECF41
:1019D000B92C882EB6CF82FC02C0B394BCCFB3948E
:1019E000B394B9CFB92C882EF2CEB60180E290E044
:1019F0000E942E0D73947614C0F3B7CF7B2CFBCFCF
:101A0000612CBDCF882D8678811559F280E281FC4A
:101A10008BE287FC8DE2B60190E0C1CFB60180E396
:101A200090E00E942E0D9A94BCCF8FEF9FEF53CF82
:101A3000FC010590615070400110D8F78095909599
:101A40008E0F9F1F0895FC0161507040019001109E
:101A5000D8F7809590958E0F9F1F08950F931F9331
:101A6000CF93DF93182F092FEB018B8181FD09C0E4
:101A70001FEF0FEF812F902FDF91CF911F910F91CB
:101A8000089582FF14C02E813F818C819D8128178B
:101A900039073CF4E881F981CF0101969983888365
:101AA00010838E819F8101969F838E83E3CFE8858B
:101AB000F985812F0995892BA1F3DACFFA01AA279D
:101AC000283051F1203181F1E8946F936E7F6E5F81
:101AD0007F4F8F4F9F4FAF4FB1E03ED0B4E03CD02F
:101AE000670F781F891F9A1FA11D680F791F8A1F12
:101AF000911DA11D6A0F711D811D911DA11D20D079
:101B000009F468943F912AE0269F11243019305D32
:101B10003193DEF6CF010895462F4770405D419323
:101B2000B3E00FD0C9F7F6CF462F4F70405D4A3370
:101B300018F0495D31FD4052419302D0A9F7EACF38
:101B4000B4E0A6959795879577956795BA95C9F767
:101B500000976105710508959B01AC010A2E06945A
:101B60005795479537952795BA95C9F7620F731F13
:101B7000841F951FA01D08952F923F924F925F9250
:101B80006F927F928F929F92AF92BF92CF92DF928D
:101B9000EF92FF920F931F93CF93DF93CDB7DEB7F2
:101BA000CA1BDB0B0FB6F894DEBF0FBECDBF099486
:101BB0002A88398848885F846E847D848C849B84DD
:101BC000AA84B984C884DF80EE80FD800C811B81EB
:101BD000AA81B981CE0FD11D0FB6F894DEBF0FBE1A
:0A1BE000CDBFED010895F894FFCF8A
:101BEA005B25645D2025730A004761726167652081
:101BFA00436F6E74726F6C2043656E7465720D0A62
:101C0A000053485434312053454E534F5200494EE5
:101C1A004954204F4B0053656E736F72207265737F
:101C2A006574204F4B0D0A00494E495420464149DC
:101C3A004C0053656E736F7220726573657420660B
:101C4A0061696C65640D0A0053797374656D206966
:101C5A006E697469616C697A65642E20576169746A
:101C6A00696E6720666F72206C6967687420747287
:101C7A0069676765722E2E2E0D0A0054454D503A3B
:101C8A000048554D49443A00250054494D453A000B
:101C9A0052454144204552524F52004D6561737579
:101CAA0072656D656E74206661696C65640D0A0003
:101CBA004F4E20004F4E3A20256C7520696E0A0D52
:101CCA00004F464600444953543A00256C75206932
:101CDA006E0054656D70657261747572653A20257F
:101CEA00660020462048756D69646974793A200057
:101CFA0020252054696D653A2000730D0A00636936
:101D0A007263756C617220627566666572206174B1
:101D1A00207461696C007374617274207265616405
:101D2A0028290A0D0054696D65722076616C756503
:101D3A003A20256C750A0D0044697374616E6365F7
:0C1D4A003A20256C7520696E0A0D00001F
:00000001FF
